:020000040800F2
:10000000680B002049020008510200085302000852
:1000100055020008570200085902000800000000BD
:100020000000000000000000000000005B0200086B
:100030005D020008000000005F0200086102000885
:1000400063020008630200086302000863020008FC
:1000500063020008630200086302000863020008EC
:1000600063020008630200086302000863020008DC
:1000700063020008630200086302000863020008CC
:1000800063020008630200086302000863020008BC
:1000900063020008630200086302000863020008AC
:1000A000630200086302000863020008630200089C
:1000B000630200086302000863020008630200088C
:1000C000630200086302000863020008630200087C
:1000D000630200086302000863020008630200086C
:1000E000630200086302000863020008630200085C
:1000F000630200086302000863020008630200084C
:10010000630200086302000863020008630200083B
:1001100063020008630200086903000889030008FD
:10012000630200086302000863020008630200081B
:10013000630200086302000863020008630200080B
:1001400063020008630200086302000863020008FB
:1001500063020008630200086302000863020008EB
:1001600063020008630200086302000863020008DB
:100170006302000863020008630200080000000038
:10018000630200086302000800F002F800F04CF877
:100190000AA090E8000C82448344AAF10107DA45E2
:1001A00001D100F041F8AFF2090EBAE80F0013F0E8
:1001B000010F18BFFB1A43F0010318470C0E000093
:1001C0002C0E00000A4410F8014B14F00F0508BF74
:1001D00010F8015B240908BF10F8014B6D1E05D013
:1001E00010F8013B6D1E01F8013BF9D1641E03D0EC
:1001F000641E01F8015BFBD19142E4D3704700001B
:100200000023002400250026103A28BF78C1FBD81F
:10021000520728BF30C148BF0B6070471FB500F0C0
:10022000CDFE1FBD10B510BD00F036F81146FFF72A
:10023000F5FF00F097FE00F054F803B4FFF7F2FF6B
:1002400003BC00F057F80000094880470948004700
:10025000FEE7FEE7FEE7FEE7FEE7FEE7FEE7FEE776
:10026000FEE7FEE704480549054A064B70470000D3
:10027000050300088901000868050020680B0020BC
:10028000680700206807002070477047704700002B
:1002900000487047040500207546FFF7F9FFAE4699
:1002A00005006946534620F00700854618B020B582
:1002B000FFF7D8FFBDE820404FF000064FF00007E1
:1002C0004FF000084FF0000B21F00701AC46ACE8FE
:1002D000C009ACE8C009ACE8C009ACE8C0098D466B
:1002E000704710B50446AFF300802046BDE81040CB
:1002F000FFF7A3BF01491820ABBEFEE726000200AE
:10030000704700001448006840F47000124908600B
:100310001248006840F001001049086000200F49B1
:10032000083108600D4800680D4908400B49086015
:100330000C48091D0860081F006820F48020091F70
:100340000860002005490C3108604FF00060024948
:10035000803908607047000088ED00E000380240F6
:10036000FFFFF6FE1030002410B50548006920F0AC
:1003700001000349086103480068804710BD000080
:1003800000100040E004002010B50548006820F08F
:1003900001000349086003480068804710BD000061
:1003A00010140040E404002010B5012A05D143696F
:1003B00001248C402343436104E0436901248C40C1
:1003C000A343436110BD000010B501221146084847
:1003D000FFF7EAFF4FF4487000F00EFB0022012106
:1003E0000348FFF7E1FF4FF4487000F005FB10BD34
:1003F000000C024010B504460121206800F012FAFA
:100400000121206800F060FA2068C168607B41EA41
:1004100000302168C86020680169207B41EA003013
:10042000216808612068C06840F400402168C86005
:10043000A168206800F018F9A07B012806D1206887
:10044000C06840F480602168C8600EE0A07B02288C
:100450000BD12068C06840F480602168C8602068C3
:10046000C06840F400702168C8602079012806D176
:100470002068C06840F004002168C86011E020795D
:1004800030B92068C06840F008002168C86008E002
:100490002079022805D12068C06840F00C0021684E
:1004A000C86010BD70B50546002211463E48FFF7F2
:1004B0007BFF00242C0904F0010028B10122072150
:1004C0003A48FFF771FF04E0002207213748FFF7A1
:1004D0006BFF04F0020028B1012208213348FFF726
:1004E00063FF04E0002208213048FFF75DFF04F0BD
:1004F000040028B1012209212C48FFF755FF04E030
:10050000002209212948FFF74FFF04F0080028B115
:1005100001220A212548FFF747FF04E000220A21B3
:100520002248FFF741FFFFF74FFF002405F00F04BB
:1005300004F0010028B1012207211C48FFF734FF15
:1005400004E0002207211948FFF72EFF04F0020003
:1005500028B1012208211548FFF726FF04E00022F8
:1005600008211248FFF720FF04F0040028B10122FF
:1005700009210E48FFF718FF04E0002209210B486B
:10058000FFF712FF04F0080028B101220A210748F2
:10059000FFF70AFF04E000220A210448FFF704FFE6
:1005A000FFF712FF70BD0000000C02400010024077
:1005B000012947D1C0F30902002A42D18212A2F5D3
:1005C0008012082A3DD2DFE802F012190B2004271E
:1005D0002E351D4A126842F010021B4B1A6030E0A3
:1005E000194A126842F00402174B1A6029E0164AB1
:1005F000126842F00102144B1A6022E0124A12689B
:1006000042F00202104B1A601BE00F4A126842F0DF
:1006100008020D4B1A6014E00B4A126842F02002E7
:10062000094B1A600DE0084A126842F04002064B7E
:100630001A6006E0044A126842F08002024B1A6017
:1006400000BF00BF704700004038024000BF026892
:10065000C2F3C012002AFAD0416000BF0268C2F3A0
:100660008012002AFAD07047F0B50B460026164FCC
:10067000B84202D0154FB84201D1542500E02A25D6
:10068000C76807F4004727B1114F6F43B7FBF3F179
:1006900002E0104F03FB07F16427B1FBF7F246EAD3
:1006A000021602EBC20707EB0217A1EB8704C7682B
:1006B00007F4004727B1E7004FF0640CB7FBFCF4E8
:1006C00044EA02178760F0BD0010014000140140A9
:1006D00048E80100E80D2800012950D1C0F30902C3
:1006E000002A4BD18212A2F58012803A092A45D203
:1006F000DFE802F0050C131A21282F363D00484A86
:10070000126842F00102464B1A6037E0444A126810
:1007100042F00202424B1A6030E0414A126842F055
:1007200004023F4B1A6029E03D4A126842F0080279
:100730003B4B1A6022E03A4A126842F01002384BF2
:100740001A601BE0364A126842F02002344B1A60ED
:1007500014E0334A126842F04002314B1A600DE057
:100760002F4A126842F080022D4B1A6006E02C4A94
:10077000126842F480722A4B1A6000BF4FE0C0F347
:10078000090202BB8212A2F58012803A092A45D2E0
:10079000DFE802F0050C131A21282F363D00204A0D
:1007A000126822F001021E4B1A6037E01C4A1268E0
:1007B00022F002021A4B1A6030E0194A126822F045
:1007C0000402174B1A6029E0154A126822F0080249
:1007D000134B1A6022E0124A126822F01002104BEA
:1007E0001A601BE00E4A126822F020020C4B1A60BD
:1007F00014E00B4A126822F04002094B1A600DE027
:10080000074A126822F08002054B1A6006E0044A8B
:10081000126822F48072024B1A6000BF00BF70475A
:1008200030380240012948D1244BC21A984233D0B3
:1008300009DC234A0244A2B1B2F5806F1AD0B2F5A6
:10084000006F39D11FE0B2F5404F03D0B2F5444FED
:1008500032D12AE01B4A126842F01002194B1A608A
:100860002AE0184A121F126842F40032154B1B1F6F
:100870001A6021E0134A121F126842F48022114BC1
:100880001B1F1A6018E00F4A121F126842F4002260
:100890000C4B1B1F1A600FE00A4A121F126842F429
:1008A0008012084B1B1F1A6006E0064A126842F0CD
:1008B0002002044B1A6000BF00BF70470050004088
:1008C00000BCFFBF44380240164BC21A98420ED0FB
:1008D00006DC154A0244A2B1B2F5806F20D115E0C2
:1008E000B2F5444F08D0B2F5484F19D113E0C268B1
:1008F00042F40052C26013E0C26842F40052C26087
:100900000EE0C26842F40052C26009E0C26842F4DC
:100910000052C26004E0C26842F40052C26000BFEC
:1009200000BF7047004C004000BCFFBF10B504463C
:1009300003E014F8010B00F0B7F820780028F8D194
:1009400010BD00001FB500F09DF909480090C021BE
:10095000029102208DF8040000218DF80C108DF812
:100960000E108DF80D106846FFF744FD1FBD000006
:10097000001001400EB5174800900D208DF80400BE
:1009800002218DF8061000218DF80910684600F04C
:10099000CFF90E208DF80400684600F0C9F90F2049
:1009A0008DF80400684600F0C3F90B48009003205E
:1009B0008DF8040002218DF8061000218DF8091031
:1009C000684600F0B5F904208DF80400684600F090
:1009D000AFF90EBD000002400004024000B503461E
:1009E00003E04FF47A7000F007F8181EA3F101013C
:1009F0008BB2F6D100BD0000811E0D4A11600C497A
:100A00002C39096841F00101094A2C3A116000BFF4
:100A100007491C39096801F001010029F8D004498F
:100A20001C39096821F00101014A1C3A1160704724
:100A30002C1800400EB51A48009001218DF80610C0
:100A400001208DF8040000218DF80710684600F0A1
:100A50006FF900208DF80400684600F069F911482C
:100A6000009001218DF8061000218DF80710072055
:100A70008DF80400684600F05BF908208DF804004A
:100A8000684600F055F909208DF80400684600F02A
:100A90004FF90A208DF80400684600F049F90EBDB0
:100AA000000C02400010024070B5054601220021F2
:100AB0003E48FFF779FC00242C0904F0010028B11E
:100AC000012207213A48FFF76FFC04E000220721CA
:100AD0003748FFF769FC04F0020028B10122082121
:100AE0003348FFF761FC04E0002208213048FFF79B
:100AF0005BFC04F0040028B1012209212C48FFF717
:100B000053FC04E0002209212948FFF74DFC04F0C2
:100B1000080028B101220A212548FFF745FC04E01E
:100B200000220A212248FFF73FFCFFF74DFC00247A
:100B300005F00F0404F0010028B1012207211C4830
:100B4000FFF732FC04E0002207211948FFF72CFCD4
:100B500004F0020028B1012208211548FFF724FC07
:100B600004E0002208211248FFF71EFC04F00400F4
:100B700028B1012209210E48FFF716FC04E00022EB
:100B800009210B48FFF710FC04F0080028B10122EE
:100B90000A210748FFF708FC04E000220A21044864
:100BA000FFF702FCFFF710FC70BD0000000C0240D4
:100BB000001002403048006800202F490860081FDC
:100BC000006840F48030091F086000BF2A48001FF9
:100BD0000068C0F340400028F8D02748006840F47F
:100BE0008000254908600846006840F0040008605D
:100BF0000846006840F4285008600846006808600D
:100C00000846006840F0E06008601C48006840F05A
:100C100005001A4908601848001F006840F08070FD
:100C20001549091F086000BF1348001F0068C0F382
:100C300040600028F8D010483C30006840F08050F8
:100C40000D493C3108600E48006800F070400C49C6
:100C500008600948001D006840F4A0500649091DBD
:100C600008600846006840F40040086008460068D4
:100C700040F002000860704704380240003C024027
:100C8000007000400EB51448009009208DF8040053
:100C900001218DF8061002218DF8061000218DF833
:100CA00008108DF8051001218DF8071007218DF827
:100CB0000910684600F03CF80A208DF80400002175
:100CC0008DF8061002218DF8061007218DF8091005
:100CD000684600F02DF80EBD0000024010B5FFF789
:100CE000A9FE012211461148FFF75EFB00221146C2
:100CF0000E48FFF759FB3320FFF7D4FB3220FFF7F4
:100D0000D1FB2820FFF7CEFB0E20FFF7CBFB012005
:100D1000FFF7C8FB0620FFF7C5FB8020FFF7C2FBEB
:100D20004FF48070FFF75AFE10BD0000000C024027
:100D300030B5044601212068FFF7CEFC0025A079DC
:100D400003280ADCA0792179490000FA01F520681E
:100D5000006828432168086094E0A079042811D134
:100D60007148006822790121914088436E490860EA
:100D7000081D006822790121914008436A49091D34
:100D800008602AE0A079052812D16748001D006894
:100D900022790121914088436349091D0860081F99
:100DA000006822790121914008435F49086014E0FE
:100DB000A079062811D15C48001D00682279012124
:100DC000914008435849091D0860081F00682279AE
:100DD000012191400843544908605448006840F498
:100DE0008040524908602079032809DCA07A2179E3
:100DF000890088404E49096808434D49086037E03A
:100E0000207907280FDC207903280CDDA07A2179CE
:100E1000091F8900884046490839C9680843444980
:100E20000839C86024E020790B280FDC20790728D6
:100E30000CDDA07A21790839890088403C490839BD
:100E4000096908433A490839086111E020790F28F7
:100E50000EDC20790B280BDDA07A21790C39890072
:100E6000884033490839496908433149083948619C
:100E70002D480838006822790121914008432A4909
:100E800008390860E0792179490000FA01F5206805
:100E90008068227903219140884321688860206816
:100EA000806828432168886060792179490000FAC8
:100EB00001F52068C06822790321914088432168A8
:100EC000C8602068C06828432168C860207A2179FA
:100ED00000FA01F520684068227901219140884399
:100EE0002168486020684068284321684860A079EC
:100EF000022818D1207908280ADA607A2179890035
:100F000000FA01F52068006A2843216808620AE0B7
:100F1000607A21790839890000FA01F52068406A71
:100F200028432168486230BD083C014044380240F3
:100F30000838014000B501210948FFF739FB54206A
:100F40000749283108600648006840F00800044955
:100F500008600846006840F08000086000BD00009E
:100F600000180040FFF726FEFFF704FDFFF7E2FF41
:100F7000FFF7B4FEFFF7E6FC0120FFF793FA07A0A6
:100F8000FFF7D4FCC020FFF78DFA07A0FFF7CEFCD7
:100F900003E07B210848FFF759FBFAE75465614DF0
:100FA00020496E4469410000524F424F434F4E204A
:100FB0003230323000000000001001404FF040702D
:100FC000E1EE100A70470000E80F00080000002062
:100FD00004050000C40100080010000804050020FA
:100FE000640600000002000801FF01FF01FF014349
:100FF00002700102FC1409559A9999999999E93F4F
:040000050800018965
:00000001FF
